{
  "contractName": "NftMarket",
  "abi": [
    {
      "inputs": [],
      "stateMutability": "nonpayable",
      "type": "constructor"
    },
    {
      "anonymous": false,
      "inputs": [
        {
          "indexed": true,
          "internalType": "address",
          "name": "owner",
          "type": "address"
        },
        {
          "indexed": true,
          "internalType": "address",
          "name": "approved",
          "type": "address"
        },
        {
          "indexed": true,
          "internalType": "uint256",
          "name": "tokenId",
          "type": "uint256"
        }
      ],
      "name": "Approval",
      "type": "event"
    },
    {
      "anonymous": false,
      "inputs": [
        {
          "indexed": true,
          "internalType": "address",
          "name": "owner",
          "type": "address"
        },
        {
          "indexed": true,
          "internalType": "address",
          "name": "operator",
          "type": "address"
        },
        {
          "indexed": false,
          "internalType": "bool",
          "name": "approved",
          "type": "bool"
        }
      ],
      "name": "ApprovalForAll",
      "type": "event"
    },
    {
      "anonymous": false,
      "inputs": [
        {
          "indexed": false,
          "internalType": "uint256",
          "name": "tokenId",
          "type": "uint256"
        },
        {
          "indexed": false,
          "internalType": "uint256",
          "name": "price",
          "type": "uint256"
        },
        {
          "indexed": false,
          "internalType": "address",
          "name": "creator",
          "type": "address"
        },
        {
          "indexed": false,
          "internalType": "bool",
          "name": "isListed",
          "type": "bool"
        }
      ],
      "name": "NftItemCreated",
      "type": "event"
    },
    {
      "anonymous": false,
      "inputs": [
        {
          "indexed": true,
          "internalType": "address",
          "name": "previousOwner",
          "type": "address"
        },
        {
          "indexed": true,
          "internalType": "address",
          "name": "newOwner",
          "type": "address"
        }
      ],
      "name": "OwnershipTransferred",
      "type": "event"
    },
    {
      "anonymous": false,
      "inputs": [
        {
          "indexed": true,
          "internalType": "address",
          "name": "from",
          "type": "address"
        },
        {
          "indexed": true,
          "internalType": "address",
          "name": "to",
          "type": "address"
        },
        {
          "indexed": true,
          "internalType": "uint256",
          "name": "tokenId",
          "type": "uint256"
        }
      ],
      "name": "Transfer",
      "type": "event"
    },
    {
      "inputs": [
        {
          "internalType": "address",
          "name": "to",
          "type": "address"
        },
        {
          "internalType": "uint256",
          "name": "tokenId",
          "type": "uint256"
        }
      ],
      "name": "approve",
      "outputs": [],
      "stateMutability": "nonpayable",
      "type": "function"
    },
    {
      "inputs": [
        {
          "internalType": "address",
          "name": "owner",
          "type": "address"
        }
      ],
      "name": "balanceOf",
      "outputs": [
        {
          "internalType": "uint256",
          "name": "",
          "type": "uint256"
        }
      ],
      "stateMutability": "view",
      "type": "function",
      "constant": true
    },
    {
      "inputs": [
        {
          "internalType": "uint256",
          "name": "tokenId",
          "type": "uint256"
        }
      ],
      "name": "getApproved",
      "outputs": [
        {
          "internalType": "address",
          "name": "",
          "type": "address"
        }
      ],
      "stateMutability": "view",
      "type": "function",
      "constant": true
    },
    {
      "inputs": [
        {
          "internalType": "address",
          "name": "owner",
          "type": "address"
        },
        {
          "internalType": "address",
          "name": "operator",
          "type": "address"
        }
      ],
      "name": "isApprovedForAll",
      "outputs": [
        {
          "internalType": "bool",
          "name": "",
          "type": "bool"
        }
      ],
      "stateMutability": "view",
      "type": "function",
      "constant": true
    },
    {
      "inputs": [],
      "name": "listingPrice",
      "outputs": [
        {
          "internalType": "uint256",
          "name": "",
          "type": "uint256"
        }
      ],
      "stateMutability": "view",
      "type": "function",
      "constant": true
    },
    {
      "inputs": [],
      "name": "name",
      "outputs": [
        {
          "internalType": "string",
          "name": "",
          "type": "string"
        }
      ],
      "stateMutability": "view",
      "type": "function",
      "constant": true
    },
    {
      "inputs": [],
      "name": "owner",
      "outputs": [
        {
          "internalType": "address",
          "name": "",
          "type": "address"
        }
      ],
      "stateMutability": "view",
      "type": "function",
      "constant": true
    },
    {
      "inputs": [
        {
          "internalType": "uint256",
          "name": "tokenId",
          "type": "uint256"
        }
      ],
      "name": "ownerOf",
      "outputs": [
        {
          "internalType": "address",
          "name": "",
          "type": "address"
        }
      ],
      "stateMutability": "view",
      "type": "function",
      "constant": true
    },
    {
      "inputs": [],
      "name": "renounceOwnership",
      "outputs": [],
      "stateMutability": "nonpayable",
      "type": "function"
    },
    {
      "inputs": [
        {
          "internalType": "address",
          "name": "from",
          "type": "address"
        },
        {
          "internalType": "address",
          "name": "to",
          "type": "address"
        },
        {
          "internalType": "uint256",
          "name": "tokenId",
          "type": "uint256"
        }
      ],
      "name": "safeTransferFrom",
      "outputs": [],
      "stateMutability": "nonpayable",
      "type": "function"
    },
    {
      "inputs": [
        {
          "internalType": "address",
          "name": "from",
          "type": "address"
        },
        {
          "internalType": "address",
          "name": "to",
          "type": "address"
        },
        {
          "internalType": "uint256",
          "name": "tokenId",
          "type": "uint256"
        },
        {
          "internalType": "bytes",
          "name": "data",
          "type": "bytes"
        }
      ],
      "name": "safeTransferFrom",
      "outputs": [],
      "stateMutability": "nonpayable",
      "type": "function"
    },
    {
      "inputs": [
        {
          "internalType": "address",
          "name": "operator",
          "type": "address"
        },
        {
          "internalType": "bool",
          "name": "approved",
          "type": "bool"
        }
      ],
      "name": "setApprovalForAll",
      "outputs": [],
      "stateMutability": "nonpayable",
      "type": "function"
    },
    {
      "inputs": [
        {
          "internalType": "bytes4",
          "name": "interfaceId",
          "type": "bytes4"
        }
      ],
      "name": "supportsInterface",
      "outputs": [
        {
          "internalType": "bool",
          "name": "",
          "type": "bool"
        }
      ],
      "stateMutability": "view",
      "type": "function",
      "constant": true
    },
    {
      "inputs": [],
      "name": "symbol",
      "outputs": [
        {
          "internalType": "string",
          "name": "",
          "type": "string"
        }
      ],
      "stateMutability": "view",
      "type": "function",
      "constant": true
    },
    {
      "inputs": [
        {
          "internalType": "uint256",
          "name": "tokenId",
          "type": "uint256"
        }
      ],
      "name": "tokenURI",
      "outputs": [
        {
          "internalType": "string",
          "name": "",
          "type": "string"
        }
      ],
      "stateMutability": "view",
      "type": "function",
      "constant": true
    },
    {
      "inputs": [
        {
          "internalType": "address",
          "name": "from",
          "type": "address"
        },
        {
          "internalType": "address",
          "name": "to",
          "type": "address"
        },
        {
          "internalType": "uint256",
          "name": "tokenId",
          "type": "uint256"
        }
      ],
      "name": "transferFrom",
      "outputs": [],
      "stateMutability": "nonpayable",
      "type": "function"
    },
    {
      "inputs": [
        {
          "internalType": "address",
          "name": "newOwner",
          "type": "address"
        }
      ],
      "name": "transferOwnership",
      "outputs": [],
      "stateMutability": "nonpayable",
      "type": "function"
    },
    {
      "inputs": [
        {
          "internalType": "uint256",
          "name": "newPrice",
          "type": "uint256"
        }
      ],
      "name": "setListingPrice",
      "outputs": [],
      "stateMutability": "nonpayable",
      "type": "function"
    },
    {
      "inputs": [
        {
          "internalType": "string",
          "name": "tokenURI",
          "type": "string"
        }
      ],
      "name": "tokenURIExists",
      "outputs": [
        {
          "internalType": "bool",
          "name": "",
          "type": "bool"
        }
      ],
      "stateMutability": "view",
      "type": "function",
      "constant": true
    },
    {
      "inputs": [],
      "name": "listedItemsCount",
      "outputs": [
        {
          "internalType": "uint256",
          "name": "",
          "type": "uint256"
        }
      ],
      "stateMutability": "view",
      "type": "function",
      "constant": true
    },
    {
      "inputs": [
        {
          "internalType": "uint256",
          "name": "tokenId",
          "type": "uint256"
        }
      ],
      "name": "getNftItem",
      "outputs": [
        {
          "components": [
            {
              "internalType": "uint256",
              "name": "tokenId",
              "type": "uint256"
            },
            {
              "internalType": "uint256",
              "name": "price",
              "type": "uint256"
            },
            {
              "internalType": "address",
              "name": "creator",
              "type": "address"
            },
            {
              "internalType": "bool",
              "name": "isListed",
              "type": "bool"
            }
          ],
          "internalType": "struct NftMarket.NftItem",
          "name": "",
          "type": "tuple"
        }
      ],
      "stateMutability": "view",
      "type": "function",
      "constant": true
    },
    {
      "inputs": [],
      "name": "totalSupply",
      "outputs": [
        {
          "internalType": "uint256",
          "name": "",
          "type": "uint256"
        }
      ],
      "stateMutability": "view",
      "type": "function",
      "constant": true
    },
    {
      "inputs": [
        {
          "internalType": "uint256",
          "name": "index",
          "type": "uint256"
        }
      ],
      "name": "tokenByIndex",
      "outputs": [
        {
          "internalType": "uint256",
          "name": "",
          "type": "uint256"
        }
      ],
      "stateMutability": "view",
      "type": "function",
      "constant": true
    },
    {
      "inputs": [
        {
          "internalType": "address",
          "name": "owner",
          "type": "address"
        },
        {
          "internalType": "uint256",
          "name": "index",
          "type": "uint256"
        }
      ],
      "name": "tokenOfOwnerByIndex",
      "outputs": [
        {
          "internalType": "uint256",
          "name": "",
          "type": "uint256"
        }
      ],
      "stateMutability": "view",
      "type": "function",
      "constant": true
    },
    {
      "inputs": [],
      "name": "getAllNftsOnSale",
      "outputs": [
        {
          "components": [
            {
              "internalType": "uint256",
              "name": "tokenId",
              "type": "uint256"
            },
            {
              "internalType": "uint256",
              "name": "price",
              "type": "uint256"
            },
            {
              "internalType": "address",
              "name": "creator",
              "type": "address"
            },
            {
              "internalType": "bool",
              "name": "isListed",
              "type": "bool"
            }
          ],
          "internalType": "struct NftMarket.NftItem[]",
          "name": "",
          "type": "tuple[]"
        }
      ],
      "stateMutability": "view",
      "type": "function",
      "constant": true
    },
    {
      "inputs": [],
      "name": "getOwnedNfts",
      "outputs": [
        {
          "components": [
            {
              "internalType": "uint256",
              "name": "tokenId",
              "type": "uint256"
            },
            {
              "internalType": "uint256",
              "name": "price",
              "type": "uint256"
            },
            {
              "internalType": "address",
              "name": "creator",
              "type": "address"
            },
            {
              "internalType": "bool",
              "name": "isListed",
              "type": "bool"
            }
          ],
          "internalType": "struct NftMarket.NftItem[]",
          "name": "",
          "type": "tuple[]"
        }
      ],
      "stateMutability": "view",
      "type": "function",
      "constant": true
    },
    {
      "inputs": [
        {
          "internalType": "string",
          "name": "tokenURI",
          "type": "string"
        },
        {
          "internalType": "uint256",
          "name": "price",
          "type": "uint256"
        }
      ],
      "name": "mintToken",
      "outputs": [
        {
          "internalType": "uint256",
          "name": "",
          "type": "uint256"
        }
      ],
      "stateMutability": "payable",
      "type": "function",
      "payable": true
    },
    {
      "inputs": [
        {
          "internalType": "uint256",
          "name": "tokenId",
          "type": "uint256"
        }
      ],
      "name": "buyNft",
      "outputs": [],
      "stateMutability": "payable",
      "type": "function",
      "payable": true
    },
    {
      "inputs": [
        {
          "internalType": "uint256",
          "name": "tokenId",
          "type": "uint256"
        },
        {
          "internalType": "uint256",
          "name": "newPrice",
          "type": "uint256"
        }
      ],
      "name": "placeNftOnSale",
      "outputs": [],
      "stateMutability": "payable",
      "type": "function",
      "payable": true
    }
  ],
  "bytecode": "0x60806040526658d15e176280006008553480156200001c57600080fd5b506040518060400160405280600c81526020017f4372656174757265734e667400000000000000000000000000000000000000008152506040518060400160405280600481526020017f434e46540000000000000000000000000000000000000000000000000000000081525081600090816200009a91906200041d565b508060019081620000ac91906200041d565b505050620000cf620000c3620000d560201b60201c565b620000dd60201b60201c565b62000504565b600033905090565b6000600760009054906101000a900473ffffffffffffffffffffffffffffffffffffffff16905081600760006101000a81548173ffffffffffffffffffffffffffffffffffffffff021916908373ffffffffffffffffffffffffffffffffffffffff1602179055508173ffffffffffffffffffffffffffffffffffffffff168173ffffffffffffffffffffffffffffffffffffffff167f8be0079c531659141344cd1fd0a4f28419497f9722a3daafe3b4186f6b6457e060405160405180910390a35050565b600081519050919050565b7f4e487b7100000000000000000000000000000000000000000000000000000000600052604160045260246000fd5b7f4e487b7100000000000000000000000000000000000000000000000000000000600052602260045260246000fd5b600060028204905060018216806200022557607f821691505b6020821081036200023b576200023a620001dd565b5b50919050565b60008190508160005260206000209050919050565b60006020601f8301049050919050565b600082821b905092915050565b600060088302620002a57fffffffffffffffffffffffffffffffffffffffffffffffffffffffffffffffff8262000266565b620002b1868362000266565b95508019841693508086168417925050509392505050565b6000819050919050565b6000819050919050565b6000620002fe620002f8620002f284620002c9565b620002d3565b620002c9565b9050919050565b6000819050919050565b6200031a83620002dd565b62000332620003298262000305565b84845462000273565b825550505050565b600090565b620003496200033a565b620003568184846200030f565b505050565b5b818110156200037e57620003726000826200033f565b6001810190506200035c565b5050565b601f821115620003cd57620003978162000241565b620003a28462000256565b81016020851015620003b2578190505b620003ca620003c18562000256565b8301826200035b565b50505b505050565b600082821c905092915050565b6000620003f260001984600802620003d2565b1980831691505092915050565b60006200040d8383620003df565b9150826002028217905092915050565b6200042882620001a3565b67ffffffffffffffff811115620004445762000443620001ae565b5b6200045082546200020c565b6200045d82828562000382565b600060209050601f83116001811462000495576000841562000480578287015190505b6200048c8582620003ff565b865550620004fc565b601f198416620004a58662000241565b60005b82811015620004cf57848901518255600182019150602085019450602081019050620004a8565b86831015620004ef5784890151620004eb601f891682620003df565b8355505b6001600288020188555050505b505050505050565b61483c80620005146000396000f3fe6080604052600436106101c25760003560e01c80636f1a0af5116100f7578063a22cb46511610095578063c87b56dd11610064578063c87b56dd14610651578063ccb4918d1461068e578063e985e9c5146106b9578063f2fde38b146106f6576101c2565b8063a22cb465146105a4578063b88d4fde146105cd578063c046372c146105f6578063c78f19f914610626576101c2565b8063715018a6116100d1578063715018a61461050e5780637c726b69146105255780638da5cb5b1461054e57806395d89b4114610579576101c2565b80636f1a0af51461046957806370a08231146104a657806370cbcb43146104e3576101c2565b8063243adbdd1161016457806342842e0e1161013e57806342842e0e1461038957806343d32ae7146103b25780634f6ccce7146103ef5780636352211e1461042c576101c2565b8063243adbdd146103055780632f745c591461032157806336b536be1461035e576101c2565b8063095ea7b3116101a0578063095ea7b31461026c57806318160ddd1461029557806321f422e5146102c057806323b872dd146102dc576101c2565b806301ffc9a7146101c757806306fdde0314610204578063081812fc1461022f575b600080fd5b3480156101d357600080fd5b506101ee60048036038101906101e99190612d88565b61071f565b6040516101fb9190612dd0565b60405180910390f35b34801561021057600080fd5b50610219610801565b6040516102269190612e7b565b60405180910390f35b34801561023b57600080fd5b5061025660048036038101906102519190612ed3565b610893565b6040516102639190612f41565b60405180910390f35b34801561027857600080fd5b50610293600480360381019061028e9190612f88565b6108d9565b005b3480156102a157600080fd5b506102aa6109f0565b6040516102b79190612fd7565b60405180910390f35b6102da60048036038101906102d59190612ff2565b6109fd565b005b3480156102e857600080fd5b5061030360048036038101906102fe9190613032565b610b79565b005b61031f600480360381019061031a9190612ed3565b610bd9565b005b34801561032d57600080fd5b5061034860048036038101906103439190612f88565b610d41565b6040516103559190612fd7565b60405180910390f35b34801561036a57600080fd5b50610373610de6565b60405161038091906131b6565b60405180910390f35b34801561039557600080fd5b506103b060048036038101906103ab9190613032565b610f80565b005b3480156103be57600080fd5b506103d960048036038101906103d4919061330d565b610fa0565b6040516103e69190612dd0565b60405180910390f35b3480156103fb57600080fd5b5061041660048036038101906104119190612ed3565b610fdc565b6040516104239190612fd7565b60405180910390f35b34801561043857600080fd5b50610453600480360381019061044e9190612ed3565b61104d565b6040516104609190612f41565b60405180910390f35b34801561047557600080fd5b50610490600480360381019061048b9190612ed3565b6110fe565b60405161049d91906133ab565b60405180910390f35b3480156104b257600080fd5b506104cd60048036038101906104c891906133c6565b6111b0565b6040516104da9190612fd7565b60405180910390f35b3480156104ef57600080fd5b506104f8611267565b60405161050591906131b6565b60405180910390f35b34801561051a57600080fd5b506105236113cb565b005b34801561053157600080fd5b5061054c60048036038101906105479190612ed3565b6113df565b005b34801561055a57600080fd5b50610563611435565b6040516105709190612f41565b60405180910390f35b34801561058557600080fd5b5061058e61145f565b60405161059b9190612e7b565b60405180910390f35b3480156105b057600080fd5b506105cb60048036038101906105c6919061341f565b6114f1565b005b3480156105d957600080fd5b506105f460048036038101906105ef9190613500565b611507565b005b610610600480360381019061060b9190613583565b611569565b60405161061d9190612fd7565b60405180910390f35b34801561063257600080fd5b5061063b611679565b6040516106489190612fd7565b60405180910390f35b34801561065d57600080fd5b5061067860048036038101906106739190612ed3565b61167f565b6040516106859190612e7b565b60405180910390f35b34801561069a57600080fd5b506106a3611791565b6040516106b09190612fd7565b60405180910390f35b3480156106c557600080fd5b506106e060048036038101906106db91906135df565b6117a2565b6040516106ed9190612dd0565b60405180910390f35b34801561070257600080fd5b5061071d600480360381019061071891906133c6565b611836565b005b60007f80ac58cd000000000000000000000000000000000000000000000000000000007bffffffffffffffffffffffffffffffffffffffffffffffffffffffff1916827bffffffffffffffffffffffffffffffffffffffffffffffffffffffff191614806107ea57507f5b5e139f000000000000000000000000000000000000000000000000000000007bffffffffffffffffffffffffffffffffffffffffffffffffffffffff1916827bffffffffffffffffffffffffffffffffffffffffffffffffffffffff1916145b806107fa57506107f9826118b9565b5b9050919050565b6060600080546108109061364e565b80601f016020809104026020016040519081016040528092919081815260200182805461083c9061364e565b80156108895780601f1061085e57610100808354040283529160200191610889565b820191906000526020600020905b81548152906001019060200180831161086c57829003601f168201915b5050505050905090565b600061089e82611923565b6004600083815260200190815260200160002060009054906101000a900473ffffffffffffffffffffffffffffffffffffffff169050919050565b60006108e48261104d565b90508073ffffffffffffffffffffffffffffffffffffffff168373ffffffffffffffffffffffffffffffffffffffff1603610954576040517f08c379a000000000000000000000000000000000000000000000000000000000815260040161094b906136f1565b60405180910390fd5b8073ffffffffffffffffffffffffffffffffffffffff1661097361196e565b73ffffffffffffffffffffffffffffffffffffffff1614806109a257506109a18161099c61196e565b6117a2565b5b6109e1576040517f08c379a00000000000000000000000000000000000000000000000000000000081526004016109d890613783565b60405180910390fd5b6109eb8383611976565b505050565b6000600f80549050905090565b3373ffffffffffffffffffffffffffffffffffffffff16610a1d8361104d565b73ffffffffffffffffffffffffffffffffffffffff1614610a73576040517f08c379a0000000000000000000000000000000000000000000000000000000008152600401610a6a906137ef565b60405180910390fd5b60001515600c600084815260200190815260200160002060020160149054906101000a900460ff16151514610add576040517f08c379a0000000000000000000000000000000000000000000000000000000008152600401610ad49061385b565b60405180910390fd5b6008543414610b21576040517f08c379a0000000000000000000000000000000000000000000000000000000008152600401610b18906138ed565b60405180910390fd5b6001600c600084815260200190815260200160002060020160146101000a81548160ff02191690831515021790555080600c600084815260200190815260200160002060010181905550610b756009611a2f565b5050565b610b8a610b8461196e565b82611a45565b610bc9576040517f08c379a0000000000000000000000000000000000000000000000000000000008152600401610bc09061397f565b60405180910390fd5b610bd4838383611ada565b505050565b6000600c60008381526020019081526020016000206001015490506000610bff8361104d565b90508073ffffffffffffffffffffffffffffffffffffffff163373ffffffffffffffffffffffffffffffffffffffff1603610c6f576040517f08c379a0000000000000000000000000000000000000000000000000000000008152600401610c66906139eb565b60405180910390fd5b813414610cb1576040517f08c379a0000000000000000000000000000000000000000000000000000000008152600401610ca890613a57565b60405180910390fd5b6000600c600085815260200190815260200160002060020160146101000a81548160ff021916908315150217905550610cea6009611d40565b610cf5813385611ada565b8073ffffffffffffffffffffffffffffffffffffffff166108fc349081150290604051600060405180830381858888f19350505050158015610d3b573d6000803e3d6000fd5b50505050565b6000610d4c836111b0565b8210610d8d576040517f08c379a0000000000000000000000000000000000000000000000000000000008152600401610d8490613ac3565b60405180910390fd5b600d60008473ffffffffffffffffffffffffffffffffffffffff1673ffffffffffffffffffffffffffffffffffffffff168152602001908152602001600020600083815260200190815260200160002054905092915050565b60606000610df26109f0565b9050600080610e016009611d9c565b67ffffffffffffffff811115610e1a57610e196131e2565b5b604051908082528060200260200182016040528015610e5357816020015b610e40612cdc565b815260200190600190039081610e385790505b50905060005b83811015610f76576000610e6c82610fdc565b90506000600c60008381526020019081526020016000209050600115158160020160149054906101000a900460ff16151503610f61578060405180608001604052908160008201548152602001600182015481526020016002820160009054906101000a900473ffffffffffffffffffffffffffffffffffffffff1673ffffffffffffffffffffffffffffffffffffffff1673ffffffffffffffffffffffffffffffffffffffff1681526020016002820160149054906101000a900460ff161515151581525050848681518110610f4657610f45613ae3565b5b6020026020010181905250600185610f5e9190613b41565b94505b50508080610f6e90613b75565b915050610e59565b5080935050505090565b610f9b83838360405180602001604052806000815250611507565b505050565b600060011515600b83604051610fb69190613bf9565b908152602001604051809103902060009054906101000a900460ff161515149050919050565b6000610fe66109f0565b8210611027576040517f08c379a000000000000000000000000000000000000000000000000000000000815260040161101e90613ac3565b60405180910390fd5b600f828154811061103b5761103a613ae3565b5b90600052602060002001549050919050565b6000806002600084815260200190815260200160002060009054906101000a900473ffffffffffffffffffffffffffffffffffffffff169050600073ffffffffffffffffffffffffffffffffffffffff168173ffffffffffffffffffffffffffffffffffffffff16036110f5576040517f08c379a00000000000000000000000000000000000000000000000000000000081526004016110ec90613c5c565b60405180910390fd5b80915050919050565b611106612cdc565b600c600083815260200190815260200160002060405180608001604052908160008201548152602001600182015481526020016002820160009054906101000a900473ffffffffffffffffffffffffffffffffffffffff1673ffffffffffffffffffffffffffffffffffffffff1673ffffffffffffffffffffffffffffffffffffffff1681526020016002820160149054906101000a900460ff1615151515815250509050919050565b60008073ffffffffffffffffffffffffffffffffffffffff168273ffffffffffffffffffffffffffffffffffffffff1603611220576040517f08c379a000000000000000000000000000000000000000000000000000000000815260040161121790613cee565b60405180910390fd5b600360008373ffffffffffffffffffffffffffffffffffffffff1673ffffffffffffffffffffffffffffffffffffffff168152602001908152602001600020549050919050565b60606000611274336111b0565b905060008167ffffffffffffffff811115611292576112916131e2565b5b6040519080825280602002602001820160405280156112cb57816020015b6112b8612cdc565b8152602001906001900390816112b05790505b50905060005b828110156113c25760006112e53383610d41565b90506000600c600083815260200190815260200160002090508060405180608001604052908160008201548152602001600182015481526020016002820160009054906101000a900473ffffffffffffffffffffffffffffffffffffffff1673ffffffffffffffffffffffffffffffffffffffff1673ffffffffffffffffffffffffffffffffffffffff1681526020016002820160149054906101000a900460ff1615151515815250508484815181106113a2576113a1613ae3565b5b6020026020010181905250505080806113ba90613b75565b9150506112d1565b50809250505090565b6113d3611daa565b6113dd6000611e28565b565b6113e7611daa565b600854810361142b576040517f08c379a000000000000000000000000000000000000000000000000000000000815260040161142290613d5a565b60405180910390fd5b8060088190555050565b6000600760009054906101000a900473ffffffffffffffffffffffffffffffffffffffff16905090565b60606001805461146e9061364e565b80601f016020809104026020016040519081016040528092919081815260200182805461149a9061364e565b80156114e75780601f106114bc576101008083540402835291602001916114e7565b820191906000526020600020905b8154815290600101906020018083116114ca57829003601f168201915b5050505050905090565b6115036114fc61196e565b8383611eee565b5050565b61151861151261196e565b83611a45565b611557576040517f08c379a000000000000000000000000000000000000000000000000000000000815260040161154e9061397f565b60405180910390fd5b6115638484848461205a565b50505050565b600061157483610fa0565b156115b4576040517f08c379a00000000000000000000000000000000000000000000000000000000081526004016115ab90613dc6565b60405180910390fd5b60085434146115f8576040517f08c379a00000000000000000000000000000000000000000000000000000000081526004016115ef906138ed565b60405180910390fd5b611602600a611a2f565b61160c6009611a2f565b6000611618600a611d9c565b905061162433826120b6565b61162e81856120d4565b6001600b856040516116409190613bf9565b908152602001604051809103902060006101000a81548160ff02191690831515021790555061166f8184612141565b8091505092915050565b60085481565b606061168a82611923565b60006006600084815260200190815260200160002080546116aa9061364e565b80601f01602080910402602001604051908101604052809291908181526020018280546116d69061364e565b80156117235780601f106116f857610100808354040283529160200191611723565b820191906000526020600020905b81548152906001019060200180831161170657829003601f168201915b505050505090506000611734612291565b9050600081510361174957819250505061178c565b60008251111561177e578082604051602001611766929190613de6565b6040516020818303038152906040529250505061178c565b611787846122a8565b925050505b919050565b600061179d6009611d9c565b905090565b6000600560008473ffffffffffffffffffffffffffffffffffffffff1673ffffffffffffffffffffffffffffffffffffffff16815260200190815260200160002060008373ffffffffffffffffffffffffffffffffffffffff1673ffffffffffffffffffffffffffffffffffffffff16815260200190815260200160002060009054906101000a900460ff16905092915050565b61183e611daa565b600073ffffffffffffffffffffffffffffffffffffffff168173ffffffffffffffffffffffffffffffffffffffff16036118ad576040517f08c379a00000000000000000000000000000000000000000000000000000000081526004016118a490613e7c565b60405180910390fd5b6118b681611e28565b50565b60007f01ffc9a7000000000000000000000000000000000000000000000000000000007bffffffffffffffffffffffffffffffffffffffffffffffffffffffff1916827bffffffffffffffffffffffffffffffffffffffffffffffffffffffff1916149050919050565b61192c81612310565b61196b576040517f08c379a000000000000000000000000000000000000000000000000000000000815260040161196290613c5c565b60405180910390fd5b50565b600033905090565b816004600083815260200190815260200160002060006101000a81548173ffffffffffffffffffffffffffffffffffffffff021916908373ffffffffffffffffffffffffffffffffffffffff160217905550808273ffffffffffffffffffffffffffffffffffffffff166119e98361104d565b73ffffffffffffffffffffffffffffffffffffffff167f8c5be1e5ebec7d5bd14f71427d1e84f3dd0314c0f7b2291e5b200ac8c7c3b92560405160405180910390a45050565b6001816000016000828254019250508190555050565b600080611a518361104d565b90508073ffffffffffffffffffffffffffffffffffffffff168473ffffffffffffffffffffffffffffffffffffffff161480611a935750611a9281856117a2565b5b80611ad157508373ffffffffffffffffffffffffffffffffffffffff16611ab984610893565b73ffffffffffffffffffffffffffffffffffffffff16145b91505092915050565b8273ffffffffffffffffffffffffffffffffffffffff16611afa8261104d565b73ffffffffffffffffffffffffffffffffffffffff1614611b50576040517f08c379a0000000000000000000000000000000000000000000000000000000008152600401611b4790613f0e565b60405180910390fd5b600073ffffffffffffffffffffffffffffffffffffffff168273ffffffffffffffffffffffffffffffffffffffff1603611bbf576040517f08c379a0000000000000000000000000000000000000000000000000000000008152600401611bb690613fa0565b60405180910390fd5b611bca83838361237c565b611bd5600082611976565b6001600360008573ffffffffffffffffffffffffffffffffffffffff1673ffffffffffffffffffffffffffffffffffffffff1681526020019081526020016000206000828254611c259190613fc0565b925050819055506001600360008473ffffffffffffffffffffffffffffffffffffffff1673ffffffffffffffffffffffffffffffffffffffff1681526020019081526020016000206000828254611c7c9190613b41565b92505081905550816002600083815260200190815260200160002060006101000a81548173ffffffffffffffffffffffffffffffffffffffff021916908373ffffffffffffffffffffffffffffffffffffffff160217905550808273ffffffffffffffffffffffffffffffffffffffff168473ffffffffffffffffffffffffffffffffffffffff167fddf252ad1be2c89b69c2b068fc378daa952ba7f163c4a11628f55a4df523b3ef60405160405180910390a4611d3b83838361248e565b505050565b60008160000154905060008111611d8c576040517f08c379a0000000000000000000000000000000000000000000000000000000008152600401611d8390614040565b60405180910390fd5b6001810382600001819055505050565b600081600001549050919050565b611db261196e565b73ffffffffffffffffffffffffffffffffffffffff16611dd0611435565b73ffffffffffffffffffffffffffffffffffffffff1614611e26576040517f08c379a0000000000000000000000000000000000000000000000000000000008152600401611e1d906140ac565b60405180910390fd5b565b6000600760009054906101000a900473ffffffffffffffffffffffffffffffffffffffff16905081600760006101000a81548173ffffffffffffffffffffffffffffffffffffffff021916908373ffffffffffffffffffffffffffffffffffffffff1602179055508173ffffffffffffffffffffffffffffffffffffffff168173ffffffffffffffffffffffffffffffffffffffff167f8be0079c531659141344cd1fd0a4f28419497f9722a3daafe3b4186f6b6457e060405160405180910390a35050565b8173ffffffffffffffffffffffffffffffffffffffff168373ffffffffffffffffffffffffffffffffffffffff1603611f5c576040517f08c379a0000000000000000000000000000000000000000000000000000000008152600401611f5390614118565b60405180910390fd5b80600560008573ffffffffffffffffffffffffffffffffffffffff1673ffffffffffffffffffffffffffffffffffffffff16815260200190815260200160002060008473ffffffffffffffffffffffffffffffffffffffff1673ffffffffffffffffffffffffffffffffffffffff16815260200190815260200160002060006101000a81548160ff0219169083151502179055508173ffffffffffffffffffffffffffffffffffffffff168373ffffffffffffffffffffffffffffffffffffffff167f17307eab39ab6107e8899845ad3d59bd9653f200f220920489ca2b5937696c318360405161204d9190612dd0565b60405180910390a3505050565b612065848484611ada565b61207184848484612493565b6120b0576040517f08c379a00000000000000000000000000000000000000000000000000000000081526004016120a7906141aa565b60405180910390fd5b50505050565b6120d082826040518060200160405280600081525061261a565b5050565b6120dd82612310565b61211c576040517f08c379a00000000000000000000000000000000000000000000000000000000081526004016121139061423c565b60405180910390fd5b8060066000848152602001908152602001600020908161213c9190614408565b505050565b60008111612184576040517f08c379a000000000000000000000000000000000000000000000000000000000815260040161217b90614526565b60405180910390fd5b60405180608001604052808381526020018281526020013373ffffffffffffffffffffffffffffffffffffffff16815260200160011515815250600c6000848152602001908152602001600020600082015181600001556020820151816001015560408201518160020160006101000a81548173ffffffffffffffffffffffffffffffffffffffff021916908373ffffffffffffffffffffffffffffffffffffffff16021790555060608201518160020160146101000a81548160ff0219169083151502179055509050507f470031062672bc0246e132c723a729c4676710ec663a29e86c88678032daddea82823360016040516122859493929190614546565b60405180910390a15050565b606060405180602001604052806000815250905090565b60606122b382611923565b60006122bd612291565b905060008151116122dd5760405180602001604052806000815250612308565b806122e784612675565b6040516020016122f8929190613de6565b6040516020818303038152906040525b915050919050565b60008073ffffffffffffffffffffffffffffffffffffffff166002600084815260200190815260200160002060009054906101000a900473ffffffffffffffffffffffffffffffffffffffff1673ffffffffffffffffffffffffffffffffffffffff1614159050919050565b6123878383836127d5565b600073ffffffffffffffffffffffffffffffffffffffff168373ffffffffffffffffffffffffffffffffffffffff16036123c9576123c4816127da565b612408565b8173ffffffffffffffffffffffffffffffffffffffff168373ffffffffffffffffffffffffffffffffffffffff1614612407576124068382612823565b5b5b600073ffffffffffffffffffffffffffffffffffffffff168273ffffffffffffffffffffffffffffffffffffffff160361244a5761244581612990565b612489565b8273ffffffffffffffffffffffffffffffffffffffff168273ffffffffffffffffffffffffffffffffffffffff1614612488576124878282612a61565b5b5b505050565b505050565b60006124b48473ffffffffffffffffffffffffffffffffffffffff16612ae0565b1561260d578373ffffffffffffffffffffffffffffffffffffffff1663150b7a026124dd61196e565b8786866040518563ffffffff1660e01b81526004016124ff94939291906145e0565b6020604051808303816000875af192505050801561253b57506040513d601f19601f820116820180604052508101906125389190614641565b60015b6125bd573d806000811461256b576040519150601f19603f3d011682016040523d82523d6000602084013e612570565b606091505b5060008151036125b5576040517f08c379a00000000000000000000000000000000000000000000000000000000081526004016125ac906141aa565b60405180910390fd5b805181602001fd5b63150b7a0260e01b7bffffffffffffffffffffffffffffffffffffffffffffffffffffffff1916817bffffffffffffffffffffffffffffffffffffffffffffffffffffffff191614915050612612565b600190505b949350505050565b6126248383612b03565b6126316000848484612493565b612670576040517f08c379a0000000000000000000000000000000000000000000000000000000008152600401612667906141aa565b60405180910390fd5b505050565b6060600082036126bc576040518060400160405280600181526020017f300000000000000000000000000000000000000000000000000000000000000081525090506127d0565b600082905060005b600082146126ee5780806126d790613b75565b915050600a826126e7919061469d565b91506126c4565b60008167ffffffffffffffff81111561270a576127096131e2565b5b6040519080825280601f01601f19166020018201604052801561273c5781602001600182028036833780820191505090505b5090505b600085146127c9576001826127559190613fc0565b9150600a8561276491906146ce565b60306127709190613b41565b60f81b81838151811061278657612785613ae3565b5b60200101907effffffffffffffffffffffffffffffffffffffffffffffffffffffffffffff1916908160001a905350600a856127c2919061469d565b9450612740565b8093505050505b919050565b505050565b600f805490506010600083815260200190815260200160002081905550600f81908060018154018082558091505060019003906000526020600020016000909190919091505550565b60006001612830846111b0565b61283a9190613fc0565b90506000600e600084815260200190815260200160002054905081811461291f576000600d60008673ffffffffffffffffffffffffffffffffffffffff1673ffffffffffffffffffffffffffffffffffffffff168152602001908152602001600020600084815260200190815260200160002054905082600d60008773ffffffffffffffffffffffffffffffffffffffff1673ffffffffffffffffffffffffffffffffffffffff16815260200190815260200160002060008481526020019081526020016000208190555081600e600083815260200190815260200160002081905550505b600e600084815260200190815260200160002060009055600d60008573ffffffffffffffffffffffffffffffffffffffff1673ffffffffffffffffffffffffffffffffffffffff16815260200190815260200160002060008381526020019081526020016000206000905550505050565b60006001600f805490506129a49190613fc0565b90506000601060008481526020019081526020016000205490506000600f83815481106129d4576129d3613ae3565b5b9060005260206000200154905080600f83815481106129f6576129f5613ae3565b5b90600052602060002001819055508160106000838152602001908152602001600020819055506010600085815260200190815260200160002060009055600f805480612a4557612a446146ff565b5b6001900381819060005260206000200160009055905550505050565b6000612a6c836111b0565b905081600d60008573ffffffffffffffffffffffffffffffffffffffff1673ffffffffffffffffffffffffffffffffffffffff16815260200190815260200160002060008381526020019081526020016000208190555080600e600084815260200190815260200160002081905550505050565b6000808273ffffffffffffffffffffffffffffffffffffffff163b119050919050565b600073ffffffffffffffffffffffffffffffffffffffff168273ffffffffffffffffffffffffffffffffffffffff1603612b72576040517f08c379a0000000000000000000000000000000000000000000000000000000008152600401612b699061477a565b60405180910390fd5b612b7b81612310565b15612bbb576040517f08c379a0000000000000000000000000000000000000000000000000000000008152600401612bb2906147e6565b60405180910390fd5b612bc76000838361237c565b6001600360008473ffffffffffffffffffffffffffffffffffffffff1673ffffffffffffffffffffffffffffffffffffffff1681526020019081526020016000206000828254612c179190613b41565b92505081905550816002600083815260200190815260200160002060006101000a81548173ffffffffffffffffffffffffffffffffffffffff021916908373ffffffffffffffffffffffffffffffffffffffff160217905550808273ffffffffffffffffffffffffffffffffffffffff16600073ffffffffffffffffffffffffffffffffffffffff167fddf252ad1be2c89b69c2b068fc378daa952ba7f163c4a11628f55a4df523b3ef60405160405180910390a4612cd86000838361248e565b5050565b60405180608001604052806000815260200160008152602001600073ffffffffffffffffffffffffffffffffffffffff1681526020016000151581525090565b6000604051905090565b600080fd5b600080fd5b60007fffffffff0000000000000000000000000000000000000000000000000000000082169050919050565b612d6581612d30565b8114612d7057600080fd5b50565b600081359050612d8281612d5c565b92915050565b600060208284031215612d9e57612d9d612d26565b5b6000612dac84828501612d73565b91505092915050565b60008115159050919050565b612dca81612db5565b82525050565b6000602082019050612de56000830184612dc1565b92915050565b600081519050919050565b600082825260208201905092915050565b60005b83811015612e25578082015181840152602081019050612e0a565b60008484015250505050565b6000601f19601f8301169050919050565b6000612e4d82612deb565b612e578185612df6565b9350612e67818560208601612e07565b612e7081612e31565b840191505092915050565b60006020820190508181036000830152612e958184612e42565b905092915050565b6000819050919050565b612eb081612e9d565b8114612ebb57600080fd5b50565b600081359050612ecd81612ea7565b92915050565b600060208284031215612ee957612ee8612d26565b5b6000612ef784828501612ebe565b91505092915050565b600073ffffffffffffffffffffffffffffffffffffffff82169050919050565b6000612f2b82612f00565b9050919050565b612f3b81612f20565b82525050565b6000602082019050612f566000830184612f32565b92915050565b612f6581612f20565b8114612f7057600080fd5b50565b600081359050612f8281612f5c565b92915050565b60008060408385031215612f9f57612f9e612d26565b5b6000612fad85828601612f73565b9250506020612fbe85828601612ebe565b9150509250929050565b612fd181612e9d565b82525050565b6000602082019050612fec6000830184612fc8565b92915050565b6000806040838503121561300957613008612d26565b5b600061301785828601612ebe565b925050602061302885828601612ebe565b9150509250929050565b60008060006060848603121561304b5761304a612d26565b5b600061305986828701612f73565b935050602061306a86828701612f73565b925050604061307b86828701612ebe565b9150509250925092565b600081519050919050565b600082825260208201905092915050565b6000819050602082019050919050565b6130ba81612e9d565b82525050565b6130c981612f20565b82525050565b6130d881612db5565b82525050565b6080820160008201516130f460008501826130b1565b50602082015161310760208501826130b1565b50604082015161311a60408501826130c0565b50606082015161312d60608501826130cf565b50505050565b600061313f83836130de565b60808301905092915050565b6000602082019050919050565b600061316382613085565b61316d8185613090565b9350613178836130a1565b8060005b838110156131a95781516131908882613133565b975061319b8361314b565b92505060018101905061317c565b5085935050505092915050565b600060208201905081810360008301526131d08184613158565b905092915050565b600080fd5b600080fd5b7f4e487b7100000000000000000000000000000000000000000000000000000000600052604160045260246000fd5b61321a82612e31565b810181811067ffffffffffffffff82111715613239576132386131e2565b5b80604052505050565b600061324c612d1c565b90506132588282613211565b919050565b600067ffffffffffffffff821115613278576132776131e2565b5b61328182612e31565b9050602081019050919050565b82818337600083830152505050565b60006132b06132ab8461325d565b613242565b9050828152602081018484840111156132cc576132cb6131dd565b5b6132d784828561328e565b509392505050565b600082601f8301126132f4576132f36131d8565b5b813561330484826020860161329d565b91505092915050565b60006020828403121561332357613322612d26565b5b600082013567ffffffffffffffff81111561334157613340612d2b565b5b61334d848285016132df565b91505092915050565b60808201600082015161336c60008501826130b1565b50602082015161337f60208501826130b1565b50604082015161339260408501826130c0565b5060608201516133a560608501826130cf565b50505050565b60006080820190506133c06000830184613356565b92915050565b6000602082840312156133dc576133db612d26565b5b60006133ea84828501612f73565b91505092915050565b6133fc81612db5565b811461340757600080fd5b50565b600081359050613419816133f3565b92915050565b6000806040838503121561343657613435612d26565b5b600061344485828601612f73565b92505060206134558582860161340a565b9150509250929050565b600067ffffffffffffffff82111561347a576134796131e2565b5b61348382612e31565b9050602081019050919050565b60006134a361349e8461345f565b613242565b9050828152602081018484840111156134bf576134be6131dd565b5b6134ca84828561328e565b509392505050565b600082601f8301126134e7576134e66131d8565b5b81356134f7848260208601613490565b91505092915050565b6000806000806080858703121561351a57613519612d26565b5b600061352887828801612f73565b945050602061353987828801612f73565b935050604061354a87828801612ebe565b925050606085013567ffffffffffffffff81111561356b5761356a612d2b565b5b613577878288016134d2565b91505092959194509250565b6000806040838503121561359a57613599612d26565b5b600083013567ffffffffffffffff8111156135b8576135b7612d2b565b5b6135c4858286016132df565b92505060206135d585828601612ebe565b9150509250929050565b600080604083850312156135f6576135f5612d26565b5b600061360485828601612f73565b925050602061361585828601612f73565b9150509250929050565b7f4e487b7100000000000000000000000000000000000000000000000000000000600052602260045260246000fd5b6000600282049050600182168061366657607f821691505b6020821081036136795761367861361f565b5b50919050565b7f4552433732313a20617070726f76616c20746f2063757272656e74206f776e6560008201527f7200000000000000000000000000000000000000000000000000000000000000602082015250565b60006136db602183612df6565b91506136e68261367f565b604082019050919050565b6000602082019050818103600083015261370a816136ce565b9050919050565b7f4552433732313a20617070726f76652063616c6c6572206973206e6f7420746f60008201527f6b656e206f776e6572206e6f7220617070726f76656420666f7220616c6c0000602082015250565b600061376d603e83612df6565b915061377882613711565b604082019050919050565b6000602082019050818103600083015261379c81613760565b9050919050565b7f596f7520617265206e6f7420746865206f776e6572206f66206e667400000000600082015250565b60006137d9601c83612df6565b91506137e4826137a3565b602082019050919050565b60006020820190508181036000830152613808816137cc565b9050919050565b7f4974656d20697320616c7265616479206f6e2073616c65000000000000000000600082015250565b6000613845601783612df6565b91506138508261380f565b602082019050919050565b6000602082019050818103600083015261387481613838565b9050919050565b7f5072696365206d75737420626520657175616c20746f206c697374696e67207060008201527f7269636500000000000000000000000000000000000000000000000000000000602082015250565b60006138d7602483612df6565b91506138e28261387b565b604082019050919050565b60006020820190508181036000830152613906816138ca565b9050919050565b7f4552433732313a2063616c6c6572206973206e6f7420746f6b656e206f776e6560008201527f72206e6f7220617070726f766564000000000000000000000000000000000000602082015250565b6000613969602e83612df6565b91506139748261390d565b604082019050919050565b600060208201905081810360008301526139988161395c565b9050919050565b7f596f7520616c7265616479206f776e732074686973204e465400000000000000600082015250565b60006139d5601983612df6565b91506139e08261399f565b602082019050919050565b60006020820190508181036000830152613a04816139c8565b9050919050565b7f506c65617365207375626d6974207468652061736b696e672070726963650000600082015250565b6000613a41601e83612df6565b9150613a4c82613a0b565b602082019050919050565b60006020820190508181036000830152613a7081613a34565b9050919050565b7f496e646578206f7574206f6620626f756e647300000000000000000000000000600082015250565b6000613aad601383612df6565b9150613ab882613a77565b602082019050919050565b60006020820190508181036000830152613adc81613aa0565b9050919050565b7f4e487b7100000000000000000000000000000000000000000000000000000000600052603260045260246000fd5b7f4e487b7100000000000000000000000000000000000000000000000000000000600052601160045260246000fd5b6000613b4c82612e9d565b9150613b5783612e9d565b9250828201905080821115613b6f57613b6e613b12565b5b92915050565b6000613b8082612e9d565b91507fffffffffffffffffffffffffffffffffffffffffffffffffffffffffffffffff8203613bb257613bb1613b12565b5b600182019050919050565b600081905092915050565b6000613bd382612deb565b613bdd8185613bbd565b9350613bed818560208601612e07565b80840191505092915050565b6000613c058284613bc8565b915081905092915050565b7f4552433732313a20696e76616c696420746f6b656e2049440000000000000000600082015250565b6000613c46601883612df6565b9150613c5182613c10565b602082019050919050565b60006020820190508181036000830152613c7581613c39565b9050919050565b7f4552433732313a2061646472657373207a65726f206973206e6f74206120766160008201527f6c6964206f776e65720000000000000000000000000000000000000000000000602082015250565b6000613cd8602983612df6565b9150613ce382613c7c565b604082019050919050565b60006020820190508181036000830152613d0781613ccb565b9050919050565b7f5072696365206d757374206e6f742062652073616d6500000000000000000000600082015250565b6000613d44601683612df6565b9150613d4f82613d0e565b602082019050919050565b60006020820190508181036000830152613d7381613d37565b9050919050565b7f546f6b656e2055524920616c7265616479206578697374730000000000000000600082015250565b6000613db0601883612df6565b9150613dbb82613d7a565b602082019050919050565b60006020820190508181036000830152613ddf81613da3565b9050919050565b6000613df28285613bc8565b9150613dfe8284613bc8565b91508190509392505050565b7f4f776e61626c653a206e6577206f776e657220697320746865207a65726f206160008201527f6464726573730000000000000000000000000000000000000000000000000000602082015250565b6000613e66602683612df6565b9150613e7182613e0a565b604082019050919050565b60006020820190508181036000830152613e9581613e59565b9050919050565b7f4552433732313a207472616e736665722066726f6d20696e636f72726563742060008201527f6f776e6572000000000000000000000000000000000000000000000000000000602082015250565b6000613ef8602583612df6565b9150613f0382613e9c565b604082019050919050565b60006020820190508181036000830152613f2781613eeb565b9050919050565b7f4552433732313a207472616e7366657220746f20746865207a65726f2061646460008201527f7265737300000000000000000000000000000000000000000000000000000000602082015250565b6000613f8a602483612df6565b9150613f9582613f2e565b604082019050919050565b60006020820190508181036000830152613fb981613f7d565b9050919050565b6000613fcb82612e9d565b9150613fd683612e9d565b9250828203905081811115613fee57613fed613b12565b5b92915050565b7f436f756e7465723a2064656372656d656e74206f766572666c6f770000000000600082015250565b600061402a601b83612df6565b915061403582613ff4565b602082019050919050565b600060208201905081810360008301526140598161401d565b9050919050565b7f4f776e61626c653a2063616c6c6572206973206e6f7420746865206f776e6572600082015250565b6000614096602083612df6565b91506140a182614060565b602082019050919050565b600060208201905081810360008301526140c581614089565b9050919050565b7f4552433732313a20617070726f766520746f2063616c6c657200000000000000600082015250565b6000614102601983612df6565b915061410d826140cc565b602082019050919050565b60006020820190508181036000830152614131816140f5565b9050919050565b7f4552433732313a207472616e7366657220746f206e6f6e20455243373231526560008201527f63656976657220696d706c656d656e7465720000000000000000000000000000602082015250565b6000614194603283612df6565b915061419f82614138565b604082019050919050565b600060208201905081810360008301526141c381614187565b9050919050565b7f45524337323155524953746f726167653a2055524920736574206f66206e6f6e60008201527f6578697374656e7420746f6b656e000000000000000000000000000000000000602082015250565b6000614226602e83612df6565b9150614231826141ca565b604082019050919050565b6000602082019050818103600083015261425581614219565b9050919050565b60008190508160005260206000209050919050565b60006020601f8301049050919050565b600082821b905092915050565b6000600883026142be7fffffffffffffffffffffffffffffffffffffffffffffffffffffffffffffffff82614281565b6142c88683614281565b95508019841693508086168417925050509392505050565b6000819050919050565b60006143056143006142fb84612e9d565b6142e0565b612e9d565b9050919050565b6000819050919050565b61431f836142ea565b61433361432b8261430c565b84845461428e565b825550505050565b600090565b61434861433b565b614353818484614316565b505050565b5b818110156143775761436c600082614340565b600181019050614359565b5050565b601f8211156143bc5761438d8161425c565b61439684614271565b810160208510156143a5578190505b6143b96143b185614271565b830182614358565b50505b505050565b600082821c905092915050565b60006143df600019846008026143c1565b1980831691505092915050565b60006143f883836143ce565b9150826002028217905092915050565b61441182612deb565b67ffffffffffffffff81111561442a576144296131e2565b5b614434825461364e565b61443f82828561437b565b600060209050601f8311600181146144725760008415614460578287015190505b61446a85826143ec565b8655506144d2565b601f1984166144808661425c565b60005b828110156144a857848901518255600182019150602085019450602081019050614483565b868310156144c557848901516144c1601f8916826143ce565b8355505b6001600288020188555050505b505050505050565b7f5072696365206d757374206265206174206c6561737420312077656900000000600082015250565b6000614510601c83612df6565b915061451b826144da565b602082019050919050565b6000602082019050818103600083015261453f81614503565b9050919050565b600060808201905061455b6000830187612fc8565b6145686020830186612fc8565b6145756040830185612f32565b6145826060830184612dc1565b95945050505050565b600081519050919050565b600082825260208201905092915050565b60006145b28261458b565b6145bc8185614596565b93506145cc818560208601612e07565b6145d581612e31565b840191505092915050565b60006080820190506145f56000830187612f32565b6146026020830186612f32565b61460f6040830185612fc8565b818103606083015261462181846145a7565b905095945050505050565b60008151905061463b81612d5c565b92915050565b60006020828403121561465757614656612d26565b5b60006146658482850161462c565b91505092915050565b7f4e487b7100000000000000000000000000000000000000000000000000000000600052601260045260246000fd5b60006146a882612e9d565b91506146b383612e9d565b9250826146c3576146c261466e565b5b828204905092915050565b60006146d982612e9d565b91506146e483612e9d565b9250826146f4576146f361466e565b5b828206905092915050565b7f4e487b7100000000000000000000000000000000000000000000000000000000600052603160045260246000fd5b7f4552433732313a206d696e7420746f20746865207a65726f2061646472657373600082015250565b6000614764602083612df6565b915061476f8261472e565b602082019050919050565b6000602082019050818103600083015261479381614757565b9050919050565b7f4552433732313a20746f6b656e20616c7265616479206d696e74656400000000600082015250565b60006147d0601c83612df6565b91506147db8261479a565b602082019050919050565b600060208201905081810360008301526147ff816147c3565b905091905056fea264697066735822122044d6b8078be9ddbc21dff4875882910d0768fb9b208b83163a883ccc10a7191a64736f6c63430008100033",
  "immutableReferences": {},
  "source": "// SPDX-License-Identifier: MIT\npragma solidity >=0.4.22 <0.9.0;\n\nimport \"@openzeppelin/contracts/token/ERC721/extensions/ERC721URIStorage.sol\";\nimport \"@openzeppelin/contracts/utils/Counters.sol\";\nimport \"@openzeppelin/contracts/access/Ownable.sol\";\n\ncontract NftMarket is ERC721URIStorage, Ownable{\n    using Counters for Counters.Counter;\n\n    struct NftItem {\n        uint tokenId;\n        uint price;\n        address creator;\n        bool isListed;\n    }\n\n    uint public listingPrice = 0.025 ether;\n\n    // listed items in this market\n    Counters.Counter private _listedItems;\n    // new tokens generated\n    Counters.Counter private _tokenIds;\n\n    mapping(string => bool) private _usedTokenURIs;\n    mapping(uint => NftItem) private _idToNftItem;\n\n    mapping(address => mapping(uint=>uint)) private _ownedTokens;\n    mapping(uint => uint) private _idToOwnedIndex;\n\n    // all tokenIds in the array\n    uint256[] private _allNfts;\n    mapping(uint => uint) private _idToNftIndex;\n\n    event NftItemCreated(\n        uint tokenId,\n        uint price,\n        address creator,\n        bool isListed\n    );\n\n    constructor() ERC721(\"CreaturesNft\",\"CNFT\"){}\n\n    function setListingPrice(uint newPrice) external onlyOwner {\n        require(newPrice !=listingPrice, \"Price must not be same\");\n        listingPrice = newPrice;\n    }\n\n    function tokenURIExists(string memory tokenURI) public view returns (bool) {\n        return _usedTokenURIs[tokenURI] == true;\n    }\n\n    function listedItemsCount() public view returns (uint){\n        return _listedItems.current();\n    }\n\n    function getNftItem(uint tokenId) public view returns (NftItem memory){\n        return _idToNftItem[tokenId];\n    }\n\n    function totalSupply() public view returns (uint) {\n        return _allNfts.length;\n    }\n\n    function tokenByIndex(uint index) public view returns (uint){\n        require(index < totalSupply(), \"Index out of bounds\");\n        return _allNfts[index];\n    }\n\n    function tokenOfOwnerByIndex(address owner, uint index) public view returns (uint){\n        require(index < ERC721.balanceOf(owner), \"Index out of bounds\");\n        return _ownedTokens[owner][index];\n    }\n\n    function getAllNftsOnSale() public view returns (NftItem[] memory){\n        uint allItemsCount = totalSupply();\n        uint currentIndex = 0;\n        NftItem[] memory items = new NftItem[](_listedItems.current());\n        for(uint i=0; i < allItemsCount; i++){\n            uint tokenId = tokenByIndex(i);\n            NftItem storage item = _idToNftItem[tokenId];\n\n            if(item.isListed == true){\n                items[currentIndex] = item;\n                currentIndex+=1;\n            }\n\n        }\n\n        return items;\n    }\n\n    function getOwnedNfts() public view returns (NftItem[] memory){\n        uint ownedItemsCount = ERC721.balanceOf(msg.sender);\n        NftItem[] memory items = new NftItem[](ownedItemsCount);\n        for(uint i=0; i<ownedItemsCount; i++){\n            uint tokenId = tokenOfOwnerByIndex(msg.sender, i);\n            NftItem storage item = _idToNftItem[tokenId];\n            items[i] = item;\n        }\n\n        return items;\n    }\n\n    // no need of burn token\n    // function burnToken(uint tokenId) public {\n    //     _burn(tokenId);\n    // }\n\n    // mint means genearte new token/nft\n    function mintToken(string memory tokenURI, uint price) public payable returns(uint) {\n        require(!tokenURIExists(tokenURI), \"Token URI already exists\");\n        require(msg.value == listingPrice, \"Price must be equal to listing price\");\n\n        _tokenIds.increment();\n        _listedItems.increment();\n\n        uint newTokenId = _tokenIds.current();\n\n        _safeMint(msg.sender, newTokenId);\n        _setTokenURI(newTokenId, tokenURI);\n        _usedTokenURIs[tokenURI] = true;\n        _createNftItem(newTokenId, price);\n\n        return newTokenId;\n    }\n\n    function buyNft(uint tokenId) public payable{\n        uint price = _idToNftItem[tokenId].price;\n        address owner = ERC721.ownerOf(tokenId);\n\n        require(msg.sender != owner, \"You already owns this NFT\");\n        require(msg.value == price, \"Please submit the asking price\");\n\n        _idToNftItem[tokenId].isListed = false;\n        _listedItems.decrement();\n\n        _transfer(owner, msg.sender, tokenId);\n        payable(owner).transfer(msg.value);\n\n    }\n\n    function placeNftOnSale(uint tokenId, uint newPrice) public payable {\n        require(ERC721.ownerOf(tokenId) == msg.sender, \"You are not the owner of nft\");\n        require(_idToNftItem[tokenId].isListed == false, \"Item is already on sale\");\n        require(msg.value == listingPrice, \"Price must be equal to listing price\");\n\n        _idToNftItem[tokenId].isListed = true;\n        _idToNftItem[tokenId].price = newPrice;\n        _listedItems.increment();\n\n    }\n\n    function _createNftItem(\n        uint tokenId, \n        uint price) private {\n        require(price > 0, \"Price must be at least 1 wei\");\n        _idToNftItem[tokenId] = NftItem(\n            tokenId, \n            price, \n            msg.sender,\n            true\n        );\n\n        emit NftItemCreated(tokenId, price, msg.sender, true);\n    }   \n\n    function _beforeTokenTransfer(\n        address from,\n        address to,\n        uint tokenId) internal virtual override{\n        \n        super._beforeTokenTransfer(from, to, tokenId);\n\n        // minting token\n        if(from == address(0)){\n            _addTokenToAllTokensEnumeration(tokenId);\n        } else \n        // transfering token\n        if(from !=to){\n            _removeTokenFromOwnerEnumeration(from, tokenId);\n        }\n\n        // burn token\n        if(to == address(0)){\n            _removeTokenFromAllTokensEnumeration(tokenId);\n        } else if(to != from){\n            _addTokenToOwnerTokensEnumeration(to, tokenId);\n        }\n\n    }\n\n    function _addTokenToAllTokensEnumeration(uint tokenId) private {\n        _idToNftIndex[tokenId] = _allNfts.length;\n        _allNfts.push(tokenId);\n    }\n\n    function _addTokenToOwnerTokensEnumeration(address to, uint tokenId) private {\n        uint length = ERC721.balanceOf(to);\n        _ownedTokens[to][length] = tokenId;\n        _idToOwnedIndex[tokenId] = length;\n    }\n\n    function _removeTokenFromOwnerEnumeration(address from, uint tokenId) private {\n        uint lastTokenIndex = ERC721.balanceOf(from) - 1;\n        uint tokenIndex = _idToOwnedIndex[tokenId];\n\n        if(tokenIndex != lastTokenIndex) {\n            uint lastTokenId = _ownedTokens[from][lastTokenIndex];\n\n            _ownedTokens[from][tokenIndex] = lastTokenIndex;\n            _idToOwnedIndex[lastTokenId] = tokenIndex;\n        }\n\n        delete _idToOwnedIndex[tokenId];\n        delete _ownedTokens[from][lastTokenIndex];\n    }\n\n    function _removeTokenFromAllTokensEnumeration(uint tokenId) private {\n        uint lastTokenIndex = _allNfts.length - 1;\n        uint tokenIndex = _idToNftIndex[tokenId];\n        uint lastTokenID = _allNfts[lastTokenIndex];\n\n        _allNfts[tokenIndex] = lastTokenID;\n        _idToNftIndex[lastTokenID] = tokenIndex;\n\n        delete _idToNftIndex[tokenId];\n        _allNfts.pop();\n    }\n   \n}",
  "sourcePath": "/home/hubhopper/dapps/nft-marketplace/contracts/NftMarket.sol",
  "compiler": {
    "name": "solc",
    "version": "0.8.16+commit.07a7930e.Emscripten.clang"
  },
  "schemaVersion": "3.4.9",
  "updatedAt": "2022-09-22T08:06:46.139Z",
  "networkType": "ethereum",
  "devdoc": {
    "kind": "dev",
    "methods": {
      "approve(address,uint256)": {
        "details": "See {IERC721-approve}."
      },
      "balanceOf(address)": {
        "details": "See {IERC721-balanceOf}."
      },
      "getApproved(uint256)": {
        "details": "See {IERC721-getApproved}."
      },
      "isApprovedForAll(address,address)": {
        "details": "See {IERC721-isApprovedForAll}."
      },
      "name()": {
        "details": "See {IERC721Metadata-name}."
      },
      "owner()": {
        "details": "Returns the address of the current owner."
      },
      "ownerOf(uint256)": {
        "details": "See {IERC721-ownerOf}."
      },
      "renounceOwnership()": {
        "details": "Leaves the contract without owner. It will not be possible to call `onlyOwner` functions anymore. Can only be called by the current owner. NOTE: Renouncing ownership will leave the contract without an owner, thereby removing any functionality that is only available to the owner."
      },
      "safeTransferFrom(address,address,uint256)": {
        "details": "See {IERC721-safeTransferFrom}."
      },
      "safeTransferFrom(address,address,uint256,bytes)": {
        "details": "See {IERC721-safeTransferFrom}."
      },
      "setApprovalForAll(address,bool)": {
        "details": "See {IERC721-setApprovalForAll}."
      },
      "supportsInterface(bytes4)": {
        "details": "See {IERC165-supportsInterface}."
      },
      "symbol()": {
        "details": "See {IERC721Metadata-symbol}."
      },
      "tokenURI(uint256)": {
        "details": "See {IERC721Metadata-tokenURI}."
      },
      "transferFrom(address,address,uint256)": {
        "details": "See {IERC721-transferFrom}."
      },
      "transferOwnership(address)": {
        "details": "Transfers ownership of the contract to a new account (`newOwner`). Can only be called by the current owner."
      }
    },
    "version": 1
  },
  "userdoc": {
    "kind": "user",
    "methods": {},
    "version": 1
  }
}